:1000000017C0FECFFDCFABC1A6C1FACFF9CFF8CF55
:10001000F7CF69C1F5CFF4CFF3CFF2CFA1C1F0CFC5
:10002000EFCFEECFEDCF19000200630126000000F4
:10003000F894EE27ECBBF1E0FBBFEBBFE5BFF8E1C6
:10004000F1BDE1BD8DE0A2E0BB27ED938A95E9F714
:1000500080E094E0A0E6ED930197E9F7E8E2F0E0B4
:1000600085919591009761F0A591B59105901590B6
:10007000BF01F00105900D920197E1F7FB01F0CF70
:10008000EFE5EDBFE4E0EEBFC0E6D1E075C1E3E02F
:10009000E3BFE2EBE2BFE9B7E160E9BF0895EFE952
:1000A000E4BDE7E0E5BDE0EBE3BDE9B7E06CE9BF47
:1000B0000895E4B3E87FE4BBE5B3E760E5BBE7B3ED
:1000C000EF7CE7BBE8B3E063E8BB8998919A999B22
:1000D00014C07AD189F47ED178F4E0916B01EF5F9E
:1000E000E0936B0177D140F0689435F8E8ECF0E0EC
:1000F000E0936F01F09370010EC0E0E0E0936B01BC
:1001000063D149F0E0916F01F09170013197E09374
:100110006F01F09370019A9B0CC060D148F4E0919C
:100120006C01EF5FE0936C0159D110F0689436F8E0
:1001300003C0E0E0E0936C01989B0CC053D148F4FD
:10014000E0916D01EF5FE0936D014CD110F0689488
:1001500037F803C0E0E0E0936D01819B0CC046D10D
:1001600048F4E0916E01EF5FE0936E013FD110F033
:10017000689440F803C0E0E0E0936E01B4990CC0CD
:1001800039D148F4E0917101EF5FE093710132D110
:1001900010F0689444F805C0E0E0E0937101E89441
:1001A00044F8B5990CC02AD148F4E0917201EF5F90
:1001B000E093720123D110F0689445F805C0E0E0A7
:1001C000E0937201E89445F80895E1B3ED61E1BB75
:1001D000A39A41FE02C0949A01C0949842FE02C0C4
:1001E000939A01C0939843FE02C0929A01C09298DC
:1001F00046FE07C007D111F40BD109F002C00ED1A1
:1002000014D1A0917301B0917401A83CE0E0BE0745
:1002100021F0A436E0E0BE0709F4AB98A091730189
:10022000B0917401A639E0E0BE0731F0A233E0E0FE
:10023000BE0711F0E7D009F4AB9AA0917501B09117
:100240007601A83CE0E0BE0721F0A436E0E0BE075E
:1002500009F49098A0917501B0917601A639E0E07B
:10026000BE0731F0A233E0E0BE0711F0D1D009F4AF
:10027000909AE2D049F0E0917301F09174013197C6
:10028000E0937301F0937401DDD049F0E0917501C2
:10029000F09176013197E0937501F093760108951E
:1002A00037FE02C0E2E04E2636FE02C0E4E04E26F3
:1002B00035FE02C0E8E04E2640FE02C0E0E44E26D5
:1002C00044FE03C0B9D009F4A9D045FE03C0BAD09A
:1002D00009F4ABD0E89435F8E89436F8E89437F8A8
:1002E000E89440F80895B4D0D2DEE1E02E2620FE56
:1002F00030C0689421F88394EAE08E1678F0882460
:10030000689422F8E4E03E26A0916901AF5FA093D3
:100310006901A03118F0E0E0E09369019394E4E111
:100320009E1618F09924689423F8A394E2E3AE167D
:1003300048F0AA24689424F8E8E03E2633FC02C082
:10034000E0E13E26B394E4E6BE1618F0BB246894C0
:1003500025F88CD018957CD0A2DE88D018951895F9
:10036000EA93FA93E4B1F5B1E0936001F09361018F
:100370007894F991E9911895E0E0E2BDE3BDE3E4FA
:10038000E7B9ECECE6B983DE7894E0E0E09368014D
:1003900021FE05C0E89421F818DF8BDE81DF22FE04
:1003A00002C0E89422F823FE02C0E89423F824FE59
:1003B00002C0E89424F825FE04C0E89425F88C9A3D
:1003C0008B9AA895E5CFFFCFE0916F01F091700176
:1003D00030970895A0916B01A3300895A0916C010E
:1003E000AA300895A0916D01AA300895A0916E01E0
:1003F000AA300895A0917101AA300895A0917201C8
:10040000AA300895A0917301B09174013DD0089570
:10041000A0917501B091760137D00895E4E6F0E03F
:10042000E0937301F09374010895E4E6F0E0E09343
:100430007501F09376010895E0917301F0917401D4
:1004400030970895E0917501F09176013097089505
:100450000A921A92FA926A937A938A939A93AA9337
:10046000BA93EA93FA93EFB7EA930895E991EFBF4D
:10047000F991E991B991A9919991899179916991AC
:10048000F99019900990089500240A160B06089512
:00000001FF
