:080000000C9441000C94000077
:100008000C9400000C9400000C9400000C94000068
:100018000C9400000C9400000C9400000C94000058
:100028000C9400000C9400000C9400000C94000048
:100038000C9400000C9400000C94D4000C94000064
:100048000C9400000C9400000C9400000C94000028
:100058000C9400000C9400000C9400000C94000018
:10006800EFDF30FC1694D89111F41090FFFFFFFFDA
:1000780094D80200000278000000F894EE27EFBB45
:10008800F1E0F5BFE5BFF8E1A4B7E4BFF093600085
:10009800E0936000A4BF8DE0A2E0BB27ED938A95B2
:1000A800E9F780E094E0A0E0B1E0ED930197E9F78B
:1000B800EAE7F0E085919591009761F0A591B591F7
:1000C80005901590BF01F00105900D920197E1F799
:1000D800FB01F0CFE0E0EEBBE0E0EABDE0E0EBBD25
:1000E800EFEFEDBFE4E0EEBFC0E0D2E00C946301B7
:1000F8000A9300E00330A0F4E02FF0E0EE5FFD4F3C
:10010800FF93EF93A981EAE00E941F02AF91BF918C
:10011800EC93A981EAE00E94F901E9830F5FEACF35
:100128000881229608950A93F09A02E0E0E0E01729
:1001380060F5F09B09C03DD1EE5FFD4FE081E030F6
:1001480019F4E02FE15009F407C033D1E050FE4F15
:10015800DF01EFEFEC9317C02CD1E050FE4FFF9377
:10016800EF93EAE6F0E0FF93EF9323D1EE5FFD4FC4
:10017800E081AF91BF91F0E0EA0FFB1FE491AF91EE
:10018800BF91EC93F0980150D1CF09910895E8817F
:10019800F9816A817B81EA93ABDFC5DF24960895F4
:1001A8008A939A93AA93BA93EA93FA93EFB7EA9346
:1001B800E0E6FFEFE6BD4394E1E0E41508F44424EB
:1001C800E0E0E4B9EAB1E063EAB9EBB1E063EBB9C6
:1001D800EBB1EF93A8E6B0E0E42DF0E0EA0FFB1FE7
:1001E800E491AF91EA23EBB9E42DF0E0E050FE4F43
:1001F800E081E5B9EFEFE4B93D985298459A5A9AEB
:10020800E0E03599E1E0EF93E0E0F199E1E0AF91CA
:10021800EA1711F40C945401E0E03599E1E0EF930A
:10022800E0E04A99E1E0AF91EA17F9F0A0E0B0E028
:100238000E943502E336A0E0FA0744F4A0E0B0E0FB
:100248000E94350231960E9445023197A0E0B0E045
:100258000E943502E336A0E0FA0734F0E3E6F0E066
:10026800A0E0B0E00E9445021BC0A0E0B0E00E9400
:100278003502309741F0A0E0B0E00E943502319796
:100288000E9445023196A0E0B0E00E943502DF01ED
:10029800109734F4E0E0F0E0A0E0B0E00E944502FE
:1002A800E89435996894EEB3E1F9EEBBE991EFBFB4
:1002B800F991E991B991A991999189911895E0E8F5
:1002C800E0936100E0E0E0936100E5B9E4B9E8B9E2
:1002D800E7B9EBB9E8E0EAB9E0E0E4BDE4E0E5BDA0
:1002E800E0E0E6BDE7BDE8BDE0938000E093810073
:1002F800E0938500E0938400E0938700E093860014
:10030800E0938900E0938800E0938B00E0938A00F3
:10031800E093B600E3E2E093B000E1E0E093B100DF
:10032800E0E0E093B200E0E3E093B300E0E5E093BF
:10033800B400E0E0E0936900EDBBE0936800E1E021
:10034800E0936E00E0E0E0936F00E0937000E0E877
:10035800E0BFE0E0E0937B007894A0E0B0E00E948A
:1003680035020E94E5010E94300211DFA0E0B0E0F2
:100378000E943502A9E1B0E00E94F4015E2E6F2EC2
:10038800A52DB62DEAE0F0E00E941A025E2E6F2E2F
:1003980000245014600414F455246624EAEFF0E0B5
:1003A800E515F60514F45E2E6F2E5092B400D5CFE5
:1003B800FFCFE02FE150F0E00895E095F0953196F9
:1003C800089560E070E0F7FF08956FEF7FEF0895FC
:1003D800FA9FF02DEB9FF00DEA9FE02DF10D0895A7
:1003E8002DD0F6DF0EF4E9DF0895002498E0AA0F77
:1003F800001C0E1A10F40E0E01C0A1609A95B9F7F0
:10040800EA2FA02D08950024112490E1AA0FBB1F04
:10041800001C111C0E1A1F0A18F40E0E1F1E01C014
:10042800A1609A9599F7FD01D001089507D0EBDFF7
:100438000EF4C3DF0895D9DFEA2F0895E894F7FF93
:1004480002C0BBDF6894B7FF06C0A095B0951196AF
:1004580000F8039400FA08957A936A93FA93EA935A
:100468000895119602D0FE2F1197F999FECFFF93A8
:10047800FFB7F894A1BDB2BDF89AE0B5FFBFFF91F0
:10048800089507D01196EF93EF2F03D0EF911197AE
:100498000895F999FECF9FB7F894A1BDB2BDF89A17
:1004A80080B5E81719F0E0BDFA9AF99A9FBF089548
:00000001FF
